{
  "contractName": "BankContract",
  "abi": [
    {
      "inputs": [],
      "payable": false,
      "stateMutability": "nonpayable",
      "type": "constructor"
    },
    {
      "anonymous": false,
      "inputs": [
        {
          "indexed": false,
          "name": "buyerbank",
          "type": "string"
        },
        {
          "indexed": false,
          "name": "sellerbank",
          "type": "string"
        },
        {
          "indexed": false,
          "name": "isVerified",
          "type": "bool"
        }
      ],
      "name": "BankContractAdded",
      "type": "event"
    },
    {
      "constant": false,
      "inputs": [
        {
          "name": "_buyerbank",
          "type": "string"
        },
        {
          "name": "_sellerbank",
          "type": "string"
        },
        {
          "name": "_isVerified",
          "type": "bool"
        }
      ],
      "name": "setbankContract",
      "outputs": [],
      "payable": false,
      "stateMutability": "nonpayable",
      "type": "function"
    },
    {
      "constant": true,
      "inputs": [],
      "name": "getbankContract",
      "outputs": [
        {
          "name": "",
          "type": "string"
        },
        {
          "name": "",
          "type": "string"
        },
        {
          "name": "",
          "type": "bool"
        }
      ],
      "payable": false,
      "stateMutability": "view",
      "type": "function"
    }
  ],
  "bytecode": "0x608060405234801561001057600080fd5b5033600260016101000a81548173ffffffffffffffffffffffffffffffffffffffff021916908373ffffffffffffffffffffffffffffffffffffffff1602179055506105fd806100616000396000f30060806040526004361061004c576000357c0100000000000000000000000000000000000000000000000000000000900463ffffffff1680634c8fd6e614610051578063f7d7c93014610158575b600080fd5b34801561005d57600080fd5b50610066610213565b60405180806020018060200184151515158152602001838103835286818151815260200191508051906020019080838360005b838110156100b4578082015181840152602081019050610099565b50505050905090810190601f1680156100e15780820380516001836020036101000a031916815260200191505b50838103825285818151815260200191508051906020019080838360005b8381101561011a5780820151818401526020810190506100ff565b50505050905090810190601f1680156101475780820380516001836020036101000a031916815260200191505b509550505050505060405180910390f35b34801561016457600080fd5b50610211600480360381019080803590602001908201803590602001908080601f0160208091040260200160405190810160405280939291908181526020018383808284378201915050505050509192919290803590602001908201803590602001908080601f016020809104026020016040519081016040528093929190818152602001838380828437820191505050505050919291929080351515906020019092919050505061036e565b005b6060806000806001600260009054906101000a900460ff16828054600181600116156101000203166002900480601f0160208091040260200160405190810160405280929190818152602001828054600181600116156101000203166002900480156102c05780601f10610295576101008083540402835291602001916102c0565b820191906000526020600020905b8154815290600101906020018083116102a357829003601f168201915b50505050509250818054600181600116156101000203166002900480601f01602080910402602001604051908101604052809291908181526020018280546001816001161561010002031660029004801561035c5780601f106103315761010080835404028352916020019161035c565b820191906000526020600020905b81548152906001019060200180831161033f57829003601f168201915b50505050509150925092509250909192565b600260019054906101000a900473ffffffffffffffffffffffffffffffffffffffff1673ffffffffffffffffffffffffffffffffffffffff163373ffffffffffffffffffffffffffffffffffffffff161415156103ca57600080fd5b82600090805190602001906103e092919061052c565b5081600190805190602001906103f792919061052c565b5080600260006101000a81548160ff0219169083151502179055507f1ff22ae2189e6eb48ab51a8b36360f3e6befe417b995e597f78542d09fe9304983838360405180806020018060200184151515158152602001838103835286818151815260200191508051906020019080838360005b83811015610484578082015181840152602081019050610469565b50505050905090810190601f1680156104b15780820380516001836020036101000a031916815260200191505b50838103825285818151815260200191508051906020019080838360005b838110156104ea5780820151818401526020810190506104cf565b50505050905090810190601f1680156105175780820380516001836020036101000a031916815260200191505b509550505050505060405180910390a1505050565b828054600181600116156101000203166002900490600052602060002090601f016020900481019282601f1061056d57805160ff191683800117855561059b565b8280016001018555821561059b579182015b8281111561059a57825182559160200191906001019061057f565b5b5090506105a891906105ac565b5090565b6105ce91905b808211156105ca5760008160009055506001016105b2565b5090565b905600a165627a7a7230582044c1a324331e1ba0d4613288e91daf7d85e980530896447b78a8e2d67ff417650029",
  "source": "pragma solidity ^0.4.24;\r\n\r\ncontract BankContract{\r\n    \r\n    string buyerbank;\r\n    string sellerbank;\r\n    bool isVerified;\r\n    address owner;\r\n       \r\n    constructor() public{\r\n        owner = msg.sender;\r\n    }\r\n\r\n    modifier onlyOwner {\r\n        require(msg.sender == owner);\r\n        _;\r\n    } \r\n    \r\n    event BankContractAdded(\r\n        string buyerbank,\r\n        string sellerbank,\r\n        bool isVerified\r\n    );\r\n    \r\n    function setbankContract(string _buyerbank, string _sellerbank, bool _isVerified) onlyOwner public {\r\n       buyerbank = _buyerbank;\r\n       sellerbank = _sellerbank;\r\n       isVerified = _isVerified;\r\n       emit BankContractAdded(_buyerbank,_sellerbank,_isVerified); \r\n    }\r\n   \r\n    function getbankContract() public constant returns (string, string, bool) {\r\n       return (buyerbank, sellerbank, isVerified);\r\n    }    \r\n}",
  "sourcePath": "C:\\Users\\vishnu.ps\\Desktop\\hackathon\\hackathon\\truffle\\contracts\\BankContract.sol",
  "compiler": {
    "name": "solc",
    "version": "0.4.24+commit.e67f0147.Emscripten.clang"
  },
  "schemaVersion": "2.0.1",
  "updatedAt": "2018-09-08T09:55:58.343Z"
}