{
  "contractName": "InitiateBilling",
  "abi": [
    {
      "inputs": [],
      "payable": false,
      "stateMutability": "nonpayable",
      "type": "constructor"
    },
    {
      "anonymous": false,
      "inputs": [
        {
          "indexed": false,
          "name": "amount",
          "type": "uint256"
        },
        {
          "indexed": false,
          "name": "initiateBill",
          "type": "bool"
        }
      ],
      "name": "setBillConfirmationReleased",
      "type": "event"
    },
    {
      "constant": false,
      "inputs": [
        {
          "name": "_amount",
          "type": "uint256"
        },
        {
          "name": "_initiateBill",
          "type": "bool"
        }
      ],
      "name": "setBillConfirmation",
      "outputs": [],
      "payable": false,
      "stateMutability": "nonpayable",
      "type": "function"
    },
    {
      "constant": true,
      "inputs": [],
      "name": "getBillOfLading",
      "outputs": [
        {
          "name": "",
          "type": "uint256"
        },
        {
          "name": "",
          "type": "bool"
        }
      ],
      "payable": false,
      "stateMutability": "view",
      "type": "function"
    }
  ],
  "bytecode": "0x608060405234801561001057600080fd5b5033600260006101000a81548173ffffffffffffffffffffffffffffffffffffffff021916908373ffffffffffffffffffffffffffffffffffffffff1602179055506101cc806100616000396000f30060806040526004361061004c576000357c0100000000000000000000000000000000000000000000000000000000900463ffffffff1680635a14faed146100515780638c9f8eb81461008a575b600080fd5b34801561005d57600080fd5b50610088600480360381019080803590602001909291908035151590602001909291905050506100c0565b005b34801561009657600080fd5b5061009f610183565b60405180838152602001821515151581526020019250505060405180910390f35b600260009054906101000a900473ffffffffffffffffffffffffffffffffffffffff1673ffffffffffffffffffffffffffffffffffffffff163373ffffffffffffffffffffffffffffffffffffffff1614151561011c57600080fd5b81600181905550806000806101000a81548160ff0219169083151502179055507f64d3812a94e49a59ed77276a4dfc358b0184c1121e5dd4f18f35a9780670acbd828260405180838152602001821515151581526020019250505060405180910390a15050565b6000806001546000809054906101000a900460ff169150915090915600a165627a7a723058204ba3111ac1ba2924e266179dcb0cf1477ca0158c385506637ee0e5e9931d8c600029",
  "source": "pragma solidity ^0.4.24;\r\n\r\ncontract InitiateBilling{\r\n    \r\n    bool initiateBill;\r\n    uint amount;\r\n    address owner;\r\n       \r\n    constructor() public{\r\n        owner = msg.sender;\r\n    }\r\n\r\n    modifier onlyOwner {\r\n        require(msg.sender == owner);\r\n        _;\r\n    } \r\n    \r\n    event setBillConfirmationReleased(\r\n        uint amount,\r\n        bool initiateBill\r\n    );\r\n    \r\n    function setBillConfirmation(uint _amount, bool _initiateBill) onlyOwner public {\r\n       amount = _amount;\r\n       initiateBill = _initiateBill;\r\n       emit setBillConfirmationReleased(_amount, _initiateBill); \r\n    }\r\n   \r\n    function getBillOfLading() public constant returns (uint, bool) {\r\n       return (amount, initiateBill);\r\n    }\r\n    \r\n}",
  "sourcePath": "C:\\Users\\vishnu.ps\\Desktop\\hackathon\\hackathon\\truffle\\contracts\\InitiateBilling.sol",
  "compiler": {
    "name": "solc",
    "version": "0.4.24+commit.e67f0147.Emscripten.clang"
  },
  "schemaVersion": "2.0.1",
  "updatedAt": "2018-09-08T09:55:58.696Z"
}