{
  "contractName": "SellerContract",
  "abi": [
    {
      "inputs": [],
      "payable": false,
      "stateMutability": "nonpayable",
      "type": "constructor"
    },
    {
      "anonymous": false,
      "inputs": [
        {
          "indexed": false,
          "name": "buyer",
          "type": "string"
        },
        {
          "indexed": false,
          "name": "seller",
          "type": "string"
        },
        {
          "indexed": false,
          "name": "isConfirmed",
          "type": "bool"
        }
      ],
      "name": "SellerContractAdded",
      "type": "event"
    },
    {
      "constant": false,
      "inputs": [
        {
          "name": "_buyer",
          "type": "string"
        },
        {
          "name": "_seller",
          "type": "string"
        },
        {
          "name": "_isConfirmed",
          "type": "bool"
        }
      ],
      "name": "setSellerContract",
      "outputs": [],
      "payable": false,
      "stateMutability": "nonpayable",
      "type": "function"
    },
    {
      "constant": true,
      "inputs": [],
      "name": "getSellerContract",
      "outputs": [
        {
          "name": "",
          "type": "string"
        },
        {
          "name": "",
          "type": "string"
        },
        {
          "name": "",
          "type": "bool"
        }
      ],
      "payable": false,
      "stateMutability": "view",
      "type": "function"
    }
  ],
  "bytecode": "0x608060405234801561001057600080fd5b5033600260016101000a81548173ffffffffffffffffffffffffffffffffffffffff021916908373ffffffffffffffffffffffffffffffffffffffff1602179055506105fd806100616000396000f30060806040526004361061004c576000357c0100000000000000000000000000000000000000000000000000000000900463ffffffff168063925c213c14610051578063a0c842061461010c575b600080fd5b34801561005d57600080fd5b5061010a600480360381019080803590602001908201803590602001908080601f0160208091040260200160405190810160405280939291908181526020018383808284378201915050505050509192919290803590602001908201803590602001908080601f0160208091040260200160405190810160405280939291908181526020018383808284378201915050505050509192919290803515159060200190929190505050610213565b005b34801561011857600080fd5b506101216103d1565b60405180806020018060200184151515158152602001838103835286818151815260200191508051906020019080838360005b8381101561016f578082015181840152602081019050610154565b50505050905090810190601f16801561019c5780820380516001836020036101000a031916815260200191505b50838103825285818151815260200191508051906020019080838360005b838110156101d55780820151818401526020810190506101ba565b50505050905090810190601f1680156102025780820380516001836020036101000a031916815260200191505b509550505050505060405180910390f35b600260019054906101000a900473ffffffffffffffffffffffffffffffffffffffff1673ffffffffffffffffffffffffffffffffffffffff163373ffffffffffffffffffffffffffffffffffffffff1614151561026f57600080fd5b826000908051906020019061028592919061052c565b50816001908051906020019061029c92919061052c565b5080600260006101000a81548160ff0219169083151502179055507fd5c110b59ec0c7e8caaad4a55dadbad10a1ad25a09825ed1ac0c60ddb88e633f83838360405180806020018060200184151515158152602001838103835286818151815260200191508051906020019080838360005b8381101561032957808201518184015260208101905061030e565b50505050905090810190601f1680156103565780820380516001836020036101000a031916815260200191505b50838103825285818151815260200191508051906020019080838360005b8381101561038f578082015181840152602081019050610374565b50505050905090810190601f1680156103bc5780820380516001836020036101000a031916815260200191505b509550505050505060405180910390a1505050565b6060806000806001600260009054906101000a900460ff16828054600181600116156101000203166002900480601f01602080910402602001604051908101604052809291908181526020018280546001816001161561010002031660029004801561047e5780601f106104535761010080835404028352916020019161047e565b820191906000526020600020905b81548152906001019060200180831161046157829003601f168201915b50505050509250818054600181600116156101000203166002900480601f01602080910402602001604051908101604052809291908181526020018280546001816001161561010002031660029004801561051a5780601f106104ef5761010080835404028352916020019161051a565b820191906000526020600020905b8154815290600101906020018083116104fd57829003601f168201915b50505050509150925092509250909192565b828054600181600116156101000203166002900490600052602060002090601f016020900481019282601f1061056d57805160ff191683800117855561059b565b8280016001018555821561059b579182015b8281111561059a57825182559160200191906001019061057f565b5b5090506105a891906105ac565b5090565b6105ce91905b808211156105ca5760008160009055506001016105b2565b5090565b905600a165627a7a7230582025d3d71a4c7a34b2b5b7749ebdc19261f583f8594da755897b7a2e2ef0565b660029",
  "source": "pragma solidity ^0.4.24;\r\n\r\ncontract SellerContract{\r\n    \r\n    string buyer;\r\n    string seller;\r\n    bool isConfirmed;\r\n    address owner;\r\n       \r\n    constructor() public{\r\n        owner = msg.sender;\r\n    }\r\n\r\n    modifier onlyOwner {\r\n        require(msg.sender == owner);\r\n        _;\r\n    } \r\n    \r\n    event SellerContractAdded(\r\n        string buyer,\r\n        string seller,\r\n        bool isConfirmed\r\n    );\r\n    \r\n    function setSellerContract(string _buyer, string _seller, bool _isConfirmed) onlyOwner public {\r\n       buyer = _buyer;\r\n       seller = _seller;\r\n       isConfirmed = _isConfirmed;\r\n       emit SellerContractAdded(_buyer,_seller,_isConfirmed); \r\n    }\r\n   \r\n    function getSellerContract() public constant returns (string, string, bool) {\r\n       return (buyer, seller, isConfirmed);\r\n    }    \r\n}",
  "sourcePath": "C:\\Users\\vishnu.ps\\Desktop\\hackathon\\hackathon\\truffle\\contracts\\SellerContract.sol",
  "compiler": {
    "name": "solc",
    "version": "0.4.24+commit.e67f0147.Emscripten.clang"
  },
  "schemaVersion": "2.0.1",
  "updatedAt": "2018-09-08T09:55:57.909Z"
}